{
  "contractName": "MedocContract",
  "abi": [
    {
      "inputs": [],
      "stateMutability": "nonpayable",
      "type": "constructor"
    },
    {
      "inputs": [
        {
          "internalType": "address",
          "name": "_pnaAddress",
          "type": "address"
        },
        {
          "internalType": "string",
          "name": "_pnaName",
          "type": "string"
        }
      ],
      "name": "addPna",
      "outputs": [],
      "stateMutability": "nonpayable",
      "type": "function"
    },
    {
      "inputs": [
        {
          "internalType": "address",
          "name": "_praAddress",
          "type": "address"
        },
        {
          "internalType": "string",
          "name": "_praName",
          "type": "string"
        }
      ],
      "name": "addPra",
      "outputs": [],
      "stateMutability": "nonpayable",
      "type": "function"
    },
    {
      "inputs": [
        {
          "internalType": "address",
          "name": "_structureAddres",
          "type": "address"
        },
        {
          "internalType": "string",
          "name": "_structureName",
          "type": "string"
        }
      ],
      "name": "addHopital",
      "outputs": [],
      "stateMutability": "nonpayable",
      "type": "function"
    },
    {
      "inputs": [
        {
          "internalType": "address",
          "name": "_structureAddres",
          "type": "address"
        },
        {
          "internalType": "string",
          "name": "_structureName",
          "type": "string"
        }
      ],
      "name": "addDistrict",
      "outputs": [],
      "stateMutability": "nonpayable",
      "type": "function"
    },
    {
      "inputs": [
        {
          "internalType": "address",
          "name": "_structureAddres",
          "type": "address"
        },
        {
          "internalType": "string",
          "name": "_structureName",
          "type": "string"
        }
      ],
      "name": "addPosteSante",
      "outputs": [],
      "stateMutability": "nonpayable",
      "type": "function"
    },
    {
      "inputs": [
        {
          "internalType": "address",
          "name": "_structureAddres",
          "type": "address"
        },
        {
          "internalType": "string",
          "name": "_structureName",
          "type": "string"
        }
      ],
      "name": "addCentreSante",
      "outputs": [],
      "stateMutability": "nonpayable",
      "type": "function"
    },
    {
      "inputs": [
        {
          "internalType": "address",
          "name": "_structureAddres",
          "type": "address"
        },
        {
          "internalType": "string",
          "name": "_structureName",
          "type": "string"
        }
      ],
      "name": "addCaseSante",
      "outputs": [],
      "stateMutability": "nonpayable",
      "type": "function"
    },
    {
      "inputs": [
        {
          "internalType": "string",
          "name": "_libelle",
          "type": "string"
        },
        {
          "internalType": "uint256",
          "name": "_lotId",
          "type": "uint256"
        },
        {
          "internalType": "string",
          "name": "_datePeremption",
          "type": "string"
        },
        {
          "internalType": "string",
          "name": "_ipfsHash",
          "type": "string"
        },
        {
          "internalType": "string",
          "name": "_date",
          "type": "string"
        }
      ],
      "name": "addMedicament",
      "outputs": [],
      "stateMutability": "nonpayable",
      "type": "function"
    },
    {
      "inputs": [
        {
          "internalType": "string",
          "name": "_ipfsHash",
          "type": "string"
        },
        {
          "internalType": "string",
          "name": "_date",
          "type": "string"
        }
      ],
      "name": "addMedicamentOnPraStock",
      "outputs": [],
      "stateMutability": "nonpayable",
      "type": "function"
    },
    {
      "inputs": [
        {
          "internalType": "string",
          "name": "_ipfsHash",
          "type": "string"
        },
        {
          "internalType": "string",
          "name": "_date",
          "type": "string"
        }
      ],
      "name": "addMedicamentOnHopitalStock",
      "outputs": [],
      "stateMutability": "nonpayable",
      "type": "function"
    },
    {
      "inputs": [
        {
          "internalType": "string",
          "name": "_ipfsHash",
          "type": "string"
        },
        {
          "internalType": "string",
          "name": "_date",
          "type": "string"
        }
      ],
      "name": "addMedicamentOnDistrictStock",
      "outputs": [],
      "stateMutability": "nonpayable",
      "type": "function"
    },
    {
      "inputs": [
        {
          "internalType": "string",
          "name": "_ipfsHash",
          "type": "string"
        },
        {
          "internalType": "string",
          "name": "_date",
          "type": "string"
        }
      ],
      "name": "addMedicamentOnPosteSanteStock",
      "outputs": [],
      "stateMutability": "nonpayable",
      "type": "function"
    },
    {
      "inputs": [
        {
          "internalType": "string",
          "name": "_ipfsHash",
          "type": "string"
        },
        {
          "internalType": "string",
          "name": "_date",
          "type": "string"
        }
      ],
      "name": "addMedicamentOnCentreSanteStock",
      "outputs": [],
      "stateMutability": "nonpayable",
      "type": "function"
    },
    {
      "inputs": [
        {
          "internalType": "string",
          "name": "_ipfsHash",
          "type": "string"
        },
        {
          "internalType": "string",
          "name": "_date",
          "type": "string"
        }
      ],
      "name": "addMedicamentOnCaseSanteStock",
      "outputs": [],
      "stateMutability": "nonpayable",
      "type": "function"
    },
    {
      "inputs": [
        {
          "internalType": "string",
          "name": "_ipfsHash",
          "type": "string"
        }
      ],
      "name": "getHistoryMedicament",
      "outputs": [
        {
          "components": [
            {
              "internalType": "string",
              "name": "_libelle",
              "type": "string"
            },
            {
              "internalType": "uint256",
              "name": "_lotId",
              "type": "uint256"
            },
            {
              "internalType": "string",
              "name": "_datePeremption",
              "type": "string"
            },
            {
              "internalType": "string",
              "name": "_ipfsHash",
              "type": "string"
            },
            {
              "components": [
                {
                  "components": [
                    {
                      "internalType": "string",
                      "name": "_structureName",
                      "type": "string"
                    },
                    {
                      "internalType": "enum MedocContract.typeStructure",
                      "name": "_structureType",
                      "type": "uint8"
                    }
                  ],
                  "internalType": "struct MedocContract.Structure",
                  "name": "_structure",
                  "type": "tuple"
                },
                {
                  "internalType": "string",
                  "name": "_date",
                  "type": "string"
                }
              ],
              "internalType": "struct MedocContract.History[]",
              "name": "_history",
              "type": "tuple[]"
            }
          ],
          "internalType": "struct MedocContract.Medicament",
          "name": "",
          "type": "tuple"
        }
      ],
      "stateMutability": "view",
      "type": "function",
      "constant": true
    },
    {
      "inputs": [
        {
          "internalType": "address",
          "name": "_structureAddress",
          "type": "address"
        }
      ],
      "name": "getStructure",
      "outputs": [
        {
          "components": [
            {
              "internalType": "string",
              "name": "_structureName",
              "type": "string"
            },
            {
              "internalType": "enum MedocContract.typeStructure",
              "name": "_structureType",
              "type": "uint8"
            }
          ],
          "internalType": "struct MedocContract.Structure",
          "name": "",
          "type": "tuple"
        }
      ],
      "stateMutability": "view",
      "type": "function",
      "constant": true
    }
  ],
  "bytecode": "0x608060405234801561001057600080fd5b5033600260006101000a81548173ffffffffffffffffffffffffffffffffffffffff021916908373ffffffffffffffffffffffffffffffffffffffff160217905550614503806100616000396000f3fe608060405234801561001057600080fd5b50600436106101005760003560e01c80637ac72cca11610097578063d27a5d2711610066578063d27a5d2714610269578063d80646dd14610285578063fbcd6516146102a1578063fd6856eb146102d157610100565b80637ac72cca146101f957806395693b9d14610215578063aa52b00b14610231578063aaba4ce81461024d57610100565b8063593e0204116100d3578063593e02041461018957806364e0e7b2146101a55780636c5c737d146101c157806370a52a32146101dd57610100565b80631e4c62d31461010557806322f6c4ce146101215780632b4070581461013d57806341ef9af41461016d575b600080fd5b61011f600480360381019061011a91906134ec565b6102ed565b005b61013b60048036038101906101369190613548565b6104ce565b005b610157600480360381019061015291906135c0565b610903565b60405161016491906138ef565b60405180910390f35b61018760048036038101906101829190613548565b610ccd565b005b6101a3600480360381019061019e91906134ec565b611102565b005b6101bf60048036038101906101ba91906134ec565b6112e4565b005b6101db60048036038101906101d6919061393d565b6114c6565b005b6101f760048036038101906101f29190613548565b6118b5565b005b610213600480360381019061020e91906134ec565b611cea565b005b61022f600480360381019061022a91906134ec565b611ecc565b005b61024b600480360381019061024691906134ec565b6120ae565b005b61026760048036038101906102629190613548565b612290565b005b610283600480360381019061027e91906134ec565b6126c5565b005b61029f600480360381019061029a9190613548565b6128a7565b005b6102bb60048036038101906102b69190613a28565b612cdc565b6040516102c89190613a92565b60405180910390f35b6102eb60048036038101906102e69190613548565b612e02565b005b600260009054906101000a900473ffffffffffffffffffffffffffffffffffffffff1673ffffffffffffffffffffffffffffffffffffffff163373ffffffffffffffffffffffffffffffffffffffff161461037d576040517f08c379a000000000000000000000000000000000000000000000000000000000815260040161037490613b11565b60405180910390fd5b6000600160008473ffffffffffffffffffffffffffffffffffffffff1673ffffffffffffffffffffffffffffffffffffffff16815260200190815260200160002060000180546103cc90613b60565b90501461040e576040517f08c379a000000000000000000000000000000000000000000000000000000000815260040161040590613bde565b60405180910390fd5b60006040518060400160405280838152602001600680811115610434576104336136d6565b5b815250905080600160008573ffffffffffffffffffffffffffffffffffffffff1673ffffffffffffffffffffffffffffffffffffffff1681526020019081526020016000206000820151816000019080519060200190610495929190613236565b5060208201518160010160006101000a81548160ff021916908360068111156104c1576104c06136d6565b5b0217905550905050505050565b600080836040516104df9190613c3a565b908152602001604051809103902060030180546104fb90613b60565b90501161053d576040517f08c379a000000000000000000000000000000000000000000000000000000000815260040161053490613cc3565b60405180910390fd5b60036006811115610551576105506136d6565b5b600160003373ffffffffffffffffffffffffffffffffffffffff1673ffffffffffffffffffffffffffffffffffffffff16815260200190815260200160002060010160009054906101000a900460ff1660068111156105b3576105b26136d6565b5b146105f3576040517f08c379a00000000000000000000000000000000000000000000000000000000081526004016105ea90613d2f565b60405180910390fd5b60016006811115610607576106066136d6565b5b6000836040516106179190613c3a565b9081526020016040518091039020600401600160008560405161063a9190613c3a565b9081526020016040518091039020600401805490506106599190613d7e565b8154811061066a57610669613db2565b5b906000526020600020906003020160000160010160009054906101000a900460ff16600681111561069e5761069d6136d6565b5b146106de576040517f08c379a00000000000000000000000000000000000000000000000000000000081526004016106d590613e53565b60405180910390fd5b60006040518060400160405280600160003373ffffffffffffffffffffffffffffffffffffffff1673ffffffffffffffffffffffffffffffffffffffff168152602001908152602001600020600001805461073890613b60565b80601f016020809104026020016040519081016040528092919081815260200182805461076490613b60565b80156107b15780601f10610786576101008083540402835291602001916107b1565b820191906000526020600020905b81548152906001019060200180831161079457829003601f168201915b50505050508152602001600160003373ffffffffffffffffffffffffffffffffffffffff1673ffffffffffffffffffffffffffffffffffffffff16815260200190815260200160002060010160009054906101000a900460ff16600681111561081d5761081c6136d6565b5b81525090506000604051806040016040528083815260200184815250905060008460405161084b9190613c3a565b908152602001604051809103902060040181908060018154018082558091505060019003906000526020600020906003020160009091909190915060008201518160000160008201518160000190805190602001906108ab929190613236565b5060208201518160010160006101000a81548160ff021916908360068111156108d7576108d66136d6565b5b0217905550505060208201518160020190805190602001906108fa929190613236565b50505050505050565b61090b6132bc565b60008260405161091b9190613c3a565b90815260200160405180910390206040518060a001604052908160008201805461094490613b60565b80601f016020809104026020016040519081016040528092919081815260200182805461097090613b60565b80156109bd5780601f10610992576101008083540402835291602001916109bd565b820191906000526020600020905b8154815290600101906020018083116109a057829003601f168201915b50505050508152602001600182015481526020016002820180546109e090613b60565b80601f0160208091040260200160405190810160405280929190818152602001828054610a0c90613b60565b8015610a595780601f10610a2e57610100808354040283529160200191610a59565b820191906000526020600020905b815481529060010190602001808311610a3c57829003601f168201915b50505050508152602001600382018054610a7290613b60565b80601f0160208091040260200160405190810160405280929190818152602001828054610a9e90613b60565b8015610aeb5780601f10610ac057610100808354040283529160200191610aeb565b820191906000526020600020905b815481529060010190602001808311610ace57829003601f168201915b5050505050815260200160048201805480602002602001604051908101604052809291908181526020016000905b82821015610cbe578382906000526020600020906003020160405180604001604052908160008201604051806040016040529081600082018054610b5c90613b60565b80601f0160208091040260200160405190810160405280929190818152602001828054610b8890613b60565b8015610bd55780601f10610baa57610100808354040283529160200191610bd5565b820191906000526020600020905b815481529060010190602001808311610bb857829003601f168201915b505050505081526020016001820160009054906101000a900460ff166006811115610c0357610c026136d6565b5b6006811115610c1557610c146136d6565b5b815250508152602001600282018054610c2d90613b60565b80601f0160208091040260200160405190810160405280929190818152602001828054610c5990613b60565b8015610ca65780601f10610c7b57610100808354040283529160200191610ca6565b820191906000526020600020905b815481529060010190602001808311610c8957829003601f168201915b50505050508152505081526020019060010190610b19565b50505050815250509050919050565b60008083604051610cde9190613c3a565b90815260200160405180910390206003018054610cfa90613b60565b905011610d3c576040517f08c379a0000000000000000000000000000000000000000000000000000000008152600401610d3390613cc3565b60405180910390fd5b60046006811115610d5057610d4f6136d6565b5b600160003373ffffffffffffffffffffffffffffffffffffffff1673ffffffffffffffffffffffffffffffffffffffff16815260200190815260200160002060010160009054906101000a900460ff166006811115610db257610db16136d6565b5b14610df2576040517f08c379a0000000000000000000000000000000000000000000000000000000008152600401610de990613ebf565b60405180910390fd5b60036006811115610e0657610e056136d6565b5b600083604051610e169190613c3a565b90815260200160405180910390206004016001600085604051610e399190613c3a565b908152602001604051809103902060040180549050610e589190613d7e565b81548110610e6957610e68613db2565b5b906000526020600020906003020160000160010160009054906101000a900460ff166006811115610e9d57610e9c6136d6565b5b14610edd576040517f08c379a0000000000000000000000000000000000000000000000000000000008152600401610ed490613f51565b60405180910390fd5b60006040518060400160405280600160003373ffffffffffffffffffffffffffffffffffffffff1673ffffffffffffffffffffffffffffffffffffffff1681526020019081526020016000206000018054610f3790613b60565b80601f0160208091040260200160405190810160405280929190818152602001828054610f6390613b60565b8015610fb05780601f10610f8557610100808354040283529160200191610fb0565b820191906000526020600020905b815481529060010190602001808311610f9357829003601f168201915b50505050508152602001600160003373ffffffffffffffffffffffffffffffffffffffff1673ffffffffffffffffffffffffffffffffffffffff16815260200190815260200160002060010160009054906101000a900460ff16600681111561101c5761101b6136d6565b5b81525090506000604051806040016040528083815260200184815250905060008460405161104a9190613c3a565b908152602001604051809103902060040181908060018154018082558091505060019003906000526020600020906003020160009091909190915060008201518160000160008201518160000190805190602001906110aa929190613236565b5060208201518160010160006101000a81548160ff021916908360068111156110d6576110d56136d6565b5b0217905550505060208201518160020190805190602001906110f9929190613236565b50505050505050565b600260009054906101000a900473ffffffffffffffffffffffffffffffffffffffff1673ffffffffffffffffffffffffffffffffffffffff163373ffffffffffffffffffffffffffffffffffffffff1614611192576040517f08c379a000000000000000000000000000000000000000000000000000000000815260040161118990613b11565b60405180910390fd5b6000600160008473ffffffffffffffffffffffffffffffffffffffff1673ffffffffffffffffffffffffffffffffffffffff16815260200190815260200160002060000180546111e190613b60565b905014611223576040517f08c379a000000000000000000000000000000000000000000000000000000000815260040161121a90613fbd565b60405180910390fd5b600060405180604001604052808381526020016002600681111561124a576112496136d6565b5b815250905080600160008573ffffffffffffffffffffffffffffffffffffffff1673ffffffffffffffffffffffffffffffffffffffff16815260200190815260200160002060008201518160000190805190602001906112ab929190613236565b5060208201518160010160006101000a81548160ff021916908360068111156112d7576112d66136d6565b5b0217905550905050505050565b600260009054906101000a900473ffffffffffffffffffffffffffffffffffffffff1673ffffffffffffffffffffffffffffffffffffffff163373ffffffffffffffffffffffffffffffffffffffff1614611374576040517f08c379a000000000000000000000000000000000000000000000000000000000815260040161136b90613b11565b60405180910390fd5b6000600160008473ffffffffffffffffffffffffffffffffffffffff1673ffffffffffffffffffffffffffffffffffffffff16815260200190815260200160002060000180546113c390613b60565b905014611405576040517f08c379a00000000000000000000000000000000000000000000000000000000081526004016113fc90614029565b60405180910390fd5b600060405180604001604052808381526020016000600681111561142c5761142b6136d6565b5b815250905080600160008573ffffffffffffffffffffffffffffffffffffffff1673ffffffffffffffffffffffffffffffffffffffff168152602001908152602001600020600082015181600001908051906020019061148d929190613236565b5060208201518160010160006101000a81548160ff021916908360068111156114b9576114b86136d6565b5b0217905550905050505050565b600260009054906101000a900473ffffffffffffffffffffffffffffffffffffffff1673ffffffffffffffffffffffffffffffffffffffff163373ffffffffffffffffffffffffffffffffffffffff1614611556576040517f08c379a000000000000000000000000000000000000000000000000000000000815260040161154d90613b11565b60405180910390fd5b600080836040516115679190613c3a565b9081526020016040518091039020600301805461158390613b60565b9050146115c5576040517f08c379a00000000000000000000000000000000000000000000000000000000081526004016115bc90614095565b60405180910390fd5b846000836040516115d69190613c3a565b908152602001604051809103902060000190805190602001906115fa929190613236565b508360008360405161160c9190613c3a565b908152602001604051809103902060010181905550826000836040516116329190613c3a565b90815260200160405180910390206002019080519060200190611656929190613236565b50816000836040516116689190613c3a565b9081526020016040518091039020600301908051906020019061168c929190613236565b5060006040518060400160405280600160003373ffffffffffffffffffffffffffffffffffffffff1673ffffffffffffffffffffffffffffffffffffffff16815260200190815260200160002060000180546116e790613b60565b80601f016020809104026020016040519081016040528092919081815260200182805461171390613b60565b80156117605780601f1061173557610100808354040283529160200191611760565b820191906000526020600020905b81548152906001019060200180831161174357829003601f168201915b50505050508152602001600160003373ffffffffffffffffffffffffffffffffffffffff1673ffffffffffffffffffffffffffffffffffffffff16815260200190815260200160002060010160009054906101000a900460ff1660068111156117cc576117cb6136d6565b5b8152509050600060405180604001604052808381526020018481525090506000846040516117fa9190613c3a565b9081526020016040518091039020600401819080600181540180825580915050600190039060005260206000209060030201600090919091909150600082015181600001600082015181600001908051906020019061185a929190613236565b5060208201518160010160006101000a81548160ff02191690836006811115611886576118856136d6565b5b0217905550505060208201518160020190805190602001906118a9929190613236565b50505050505050505050565b600080836040516118c69190613c3a565b908152602001604051809103902060030180546118e290613b60565b905011611924576040517f08c379a000000000000000000000000000000000000000000000000000000000815260040161191b90613cc3565b60405180910390fd5b60026006811115611938576119376136d6565b5b600160003373ffffffffffffffffffffffffffffffffffffffff1673ffffffffffffffffffffffffffffffffffffffff16815260200190815260200160002060010160009054906101000a900460ff16600681111561199a576119996136d6565b5b146119da576040517f08c379a00000000000000000000000000000000000000000000000000000000081526004016119d190614101565b60405180910390fd5b600160068111156119ee576119ed6136d6565b5b6000836040516119fe9190613c3a565b90815260200160405180910390206004016001600085604051611a219190613c3a565b908152602001604051809103902060040180549050611a409190613d7e565b81548110611a5157611a50613db2565b5b906000526020600020906003020160000160010160009054906101000a900460ff166006811115611a8557611a846136d6565b5b14611ac5576040517f08c379a0000000000000000000000000000000000000000000000000000000008152600401611abc90613e53565b60405180910390fd5b60006040518060400160405280600160003373ffffffffffffffffffffffffffffffffffffffff1673ffffffffffffffffffffffffffffffffffffffff1681526020019081526020016000206000018054611b1f90613b60565b80601f0160208091040260200160405190810160405280929190818152602001828054611b4b90613b60565b8015611b985780601f10611b6d57610100808354040283529160200191611b98565b820191906000526020600020905b815481529060010190602001808311611b7b57829003601f168201915b50505050508152602001600160003373ffffffffffffffffffffffffffffffffffffffff1673ffffffffffffffffffffffffffffffffffffffff16815260200190815260200160002060010160009054906101000a900460ff166006811115611c0457611c036136d6565b5b815250905060006040518060400160405280838152602001848152509050600084604051611c329190613c3a565b90815260200160405180910390206004018190806001815401808255809150506001900390600052602060002090600302016000909190919091506000820151816000016000820151816000019080519060200190611c92929190613236565b5060208201518160010160006101000a81548160ff02191690836006811115611cbe57611cbd6136d6565b5b021790555050506020820151816002019080519060200190611ce1929190613236565b50505050505050565b600260009054906101000a900473ffffffffffffffffffffffffffffffffffffffff1673ffffffffffffffffffffffffffffffffffffffff163373ffffffffffffffffffffffffffffffffffffffff1614611d7a576040517f08c379a0000000000000000000000000000000000000000000000000000000008152600401611d7190613b11565b60405180910390fd5b6000600160008473ffffffffffffffffffffffffffffffffffffffff1673ffffffffffffffffffffffffffffffffffffffff1681526020019081526020016000206000018054611dc990613b60565b905014611e0b576040517f08c379a0000000000000000000000000000000000000000000000000000000008152600401611e029061416d565b60405180910390fd5b6000604051806040016040528083815260200160016006811115611e3257611e316136d6565b5b815250905080600160008573ffffffffffffffffffffffffffffffffffffffff1673ffffffffffffffffffffffffffffffffffffffff1681526020019081526020016000206000820151816000019080519060200190611e93929190613236565b5060208201518160010160006101000a81548160ff02191690836006811115611ebf57611ebe6136d6565b5b0217905550905050505050565b600260009054906101000a900473ffffffffffffffffffffffffffffffffffffffff1673ffffffffffffffffffffffffffffffffffffffff163373ffffffffffffffffffffffffffffffffffffffff1614611f5c576040517f08c379a0000000000000000000000000000000000000000000000000000000008152600401611f5390613b11565b60405180910390fd5b6000600160008473ffffffffffffffffffffffffffffffffffffffff1673ffffffffffffffffffffffffffffffffffffffff1681526020019081526020016000206000018054611fab90613b60565b905014611fed576040517f08c379a0000000000000000000000000000000000000000000000000000000008152600401611fe490613fbd565b60405180910390fd5b6000604051806040016040528083815260200160046006811115612014576120136136d6565b5b815250905080600160008573ffffffffffffffffffffffffffffffffffffffff1673ffffffffffffffffffffffffffffffffffffffff1681526020019081526020016000206000820151816000019080519060200190612075929190613236565b5060208201518160010160006101000a81548160ff021916908360068111156120a1576120a06136d6565b5b0217905550905050505050565b600260009054906101000a900473ffffffffffffffffffffffffffffffffffffffff1673ffffffffffffffffffffffffffffffffffffffff163373ffffffffffffffffffffffffffffffffffffffff161461213e576040517f08c379a000000000000000000000000000000000000000000000000000000000815260040161213590613b11565b60405180910390fd5b6000600160008473ffffffffffffffffffffffffffffffffffffffff1673ffffffffffffffffffffffffffffffffffffffff168152602001908152602001600020600001805461218d90613b60565b9050146121cf576040517f08c379a00000000000000000000000000000000000000000000000000000000081526004016121c6906141d9565b60405180910390fd5b60006040518060400160405280838152602001600560068111156121f6576121f56136d6565b5b815250905080600160008573ffffffffffffffffffffffffffffffffffffffff1673ffffffffffffffffffffffffffffffffffffffff1681526020019081526020016000206000820151816000019080519060200190612257929190613236565b5060208201518160010160006101000a81548160ff02191690836006811115612283576122826136d6565b5b0217905550905050505050565b600080836040516122a19190613c3a565b908152602001604051809103902060030180546122bd90613b60565b9050116122ff576040517f08c379a00000000000000000000000000000000000000000000000000000000081526004016122f690613cc3565b60405180910390fd5b60016006811115612313576123126136d6565b5b600160003373ffffffffffffffffffffffffffffffffffffffff1673ffffffffffffffffffffffffffffffffffffffff16815260200190815260200160002060010160009054906101000a900460ff166006811115612375576123746136d6565b5b146123b5576040517f08c379a00000000000000000000000000000000000000000000000000000000081526004016123ac90614245565b60405180910390fd5b600060068111156123c9576123c86136d6565b5b6000836040516123d99190613c3a565b908152602001604051809103902060040160016000856040516123fc9190613c3a565b90815260200160405180910390206004018054905061241b9190613d7e565b8154811061242c5761242b613db2565b5b906000526020600020906003020160000160010160009054906101000a900460ff1660068111156124605761245f6136d6565b5b146124a0576040517f08c379a0000000000000000000000000000000000000000000000000000000008152600401612497906142d7565b60405180910390fd5b60006040518060400160405280600160003373ffffffffffffffffffffffffffffffffffffffff1673ffffffffffffffffffffffffffffffffffffffff16815260200190815260200160002060000180546124fa90613b60565b80601f016020809104026020016040519081016040528092919081815260200182805461252690613b60565b80156125735780601f1061254857610100808354040283529160200191612573565b820191906000526020600020905b81548152906001019060200180831161255657829003601f168201915b50505050508152602001600160003373ffffffffffffffffffffffffffffffffffffffff1673ffffffffffffffffffffffffffffffffffffffff16815260200190815260200160002060010160009054906101000a900460ff1660068111156125df576125de6136d6565b5b81525090506000604051806040016040528083815260200184815250905060008460405161260d9190613c3a565b9081526020016040518091039020600401819080600181540180825580915050600190039060005260206000209060030201600090919091909150600082015181600001600082015181600001908051906020019061266d929190613236565b5060208201518160010160006101000a81548160ff02191690836006811115612699576126986136d6565b5b0217905550505060208201518160020190805190602001906126bc929190613236565b50505050505050565b600260009054906101000a900473ffffffffffffffffffffffffffffffffffffffff1673ffffffffffffffffffffffffffffffffffffffff163373ffffffffffffffffffffffffffffffffffffffff1614612755576040517f08c379a000000000000000000000000000000000000000000000000000000000815260040161274c90613b11565b60405180910390fd5b6000600160008473ffffffffffffffffffffffffffffffffffffffff1673ffffffffffffffffffffffffffffffffffffffff16815260200190815260200160002060000180546127a490613b60565b9050146127e6576040517f08c379a00000000000000000000000000000000000000000000000000000000081526004016127dd90614343565b60405180910390fd5b600060405180604001604052808381526020016003600681111561280d5761280c6136d6565b5b815250905080600160008573ffffffffffffffffffffffffffffffffffffffff1673ffffffffffffffffffffffffffffffffffffffff168152602001908152602001600020600082015181600001908051906020019061286e929190613236565b5060208201518160010160006101000a81548160ff0219169083600681111561289a576128996136d6565b5b0217905550905050505050565b600080836040516128b89190613c3a565b908152602001604051809103902060030180546128d490613b60565b905011612916576040517f08c379a000000000000000000000000000000000000000000000000000000000815260040161290d90613cc3565b60405180910390fd5b6005600681111561292a576129296136d6565b5b600160003373ffffffffffffffffffffffffffffffffffffffff1673ffffffffffffffffffffffffffffffffffffffff16815260200190815260200160002060010160009054906101000a900460ff16600681111561298c5761298b6136d6565b5b146129cc576040517f08c379a00000000000000000000000000000000000000000000000000000000081526004016129c3906143af565b60405180910390fd5b600360068111156129e0576129df6136d6565b5b6000836040516129f09190613c3a565b90815260200160405180910390206004016001600085604051612a139190613c3a565b908152602001604051809103902060040180549050612a329190613d7e565b81548110612a4357612a42613db2565b5b906000526020600020906003020160000160010160009054906101000a900460ff166006811115612a7757612a766136d6565b5b14612ab7576040517f08c379a0000000000000000000000000000000000000000000000000000000008152600401612aae90613f51565b60405180910390fd5b60006040518060400160405280600160003373ffffffffffffffffffffffffffffffffffffffff1673ffffffffffffffffffffffffffffffffffffffff1681526020019081526020016000206000018054612b1190613b60565b80601f0160208091040260200160405190810160405280929190818152602001828054612b3d90613b60565b8015612b8a5780601f10612b5f57610100808354040283529160200191612b8a565b820191906000526020600020905b815481529060010190602001808311612b6d57829003601f168201915b50505050508152602001600160003373ffffffffffffffffffffffffffffffffffffffff1673ffffffffffffffffffffffffffffffffffffffff16815260200190815260200160002060010160009054906101000a900460ff166006811115612bf657612bf56136d6565b5b815250905060006040518060400160405280838152602001848152509050600084604051612c249190613c3a565b90815260200160405180910390206004018190806001815401808255809150506001900390600052602060002090600302016000909190919091506000820151816000016000820151816000019080519060200190612c84929190613236565b5060208201518160010160006101000a81548160ff02191690836006811115612cb057612caf6136d6565b5b021790555050506020820151816002019080519060200190612cd3929190613236565b50505050505050565b612ce46132eb565b600160008373ffffffffffffffffffffffffffffffffffffffff1673ffffffffffffffffffffffffffffffffffffffff168152602001908152602001600020604051806040016040529081600082018054612d3e90613b60565b80601f0160208091040260200160405190810160405280929190818152602001828054612d6a90613b60565b8015612db75780601f10612d8c57610100808354040283529160200191612db7565b820191906000526020600020905b815481529060010190602001808311612d9a57829003601f168201915b505050505081526020016001820160009054906101000a900460ff166006811115612de557612de46136d6565b5b6006811115612df757612df66136d6565b5b815250509050919050565b60008083604051612e139190613c3a565b90815260200160405180910390206003018054612e2f90613b60565b905011612e71576040517f08c379a0000000000000000000000000000000000000000000000000000000008152600401612e6890613cc3565b60405180910390fd5b600680811115612e8457612e836136d6565b5b600160003373ffffffffffffffffffffffffffffffffffffffff1673ffffffffffffffffffffffffffffffffffffffff16815260200190815260200160002060010160009054906101000a900460ff166006811115612ee657612ee56136d6565b5b14612f26576040517f08c379a0000000000000000000000000000000000000000000000000000000008152600401612f1d9061441b565b60405180910390fd5b60046006811115612f3a57612f396136d6565b5b600083604051612f4a9190613c3a565b90815260200160405180910390206004016001600085604051612f6d9190613c3a565b908152602001604051809103902060040180549050612f8c9190613d7e565b81548110612f9d57612f9c613db2565b5b906000526020600020906003020160000160010160009054906101000a900460ff166006811115612fd157612fd06136d6565b5b14613011576040517f08c379a0000000000000000000000000000000000000000000000000000000008152600401613008906144ad565b60405180910390fd5b60006040518060400160405280600160003373ffffffffffffffffffffffffffffffffffffffff1673ffffffffffffffffffffffffffffffffffffffff168152602001908152602001600020600001805461306b90613b60565b80601f016020809104026020016040519081016040528092919081815260200182805461309790613b60565b80156130e45780601f106130b9576101008083540402835291602001916130e4565b820191906000526020600020905b8154815290600101906020018083116130c757829003601f168201915b50505050508152602001600160003373ffffffffffffffffffffffffffffffffffffffff1673ffffffffffffffffffffffffffffffffffffffff16815260200190815260200160002060010160009054906101000a900460ff1660068111156131505761314f6136d6565b5b81525090506000604051806040016040528083815260200184815250905060008460405161317e9190613c3a565b908152602001604051809103902060040181908060018154018082558091505060019003906000526020600020906003020160009091909190915060008201518160000160008201518160000190805190602001906131de929190613236565b5060208201518160010160006101000a81548160ff0219169083600681111561320a576132096136d6565b5b02179055505050602082015181600201908051906020019061322d929190613236565b50505050505050565b82805461324290613b60565b90600052602060002090601f01602090048101928261326457600085556132ab565b82601f1061327d57805160ff19168380011785556132ab565b828001600101855582156132ab579182015b828111156132aa57825182559160200191906001019061328f565b5b5090506132b89190613317565b5090565b6040518060a0016040528060608152602001600081526020016060815260200160608152602001606081525090565b60405180604001604052806060815260200160006006811115613311576133106136d6565b5b81525090565b5b80821115613330576000816000905550600101613318565b5090565b6000604051905090565b600080fd5b600080fd5b600073ffffffffffffffffffffffffffffffffffffffff82169050919050565b600061337382613348565b9050919050565b61338381613368565b811461338e57600080fd5b50565b6000813590506133a08161337a565b92915050565b600080fd5b600080fd5b6000601f19601f8301169050919050565b7f4e487b7100000000000000000000000000000000000000000000000000000000600052604160045260246000fd5b6133f9826133b0565b810181811067ffffffffffffffff82111715613418576134176133c1565b5b80604052505050565b600061342b613334565b905061343782826133f0565b919050565b600067ffffffffffffffff821115613457576134566133c1565b5b613460826133b0565b9050602081019050919050565b82818337600083830152505050565b600061348f61348a8461343c565b613421565b9050828152602081018484840111156134ab576134aa6133ab565b5b6134b684828561346d565b509392505050565b600082601f8301126134d3576134d26133a6565b5b81356134e384826020860161347c565b91505092915050565b600080604083850312156135035761350261333e565b5b600061351185828601613391565b925050602083013567ffffffffffffffff81111561353257613531613343565b5b61353e858286016134be565b9150509250929050565b6000806040838503121561355f5761355e61333e565b5b600083013567ffffffffffffffff81111561357d5761357c613343565b5b613589858286016134be565b925050602083013567ffffffffffffffff8111156135aa576135a9613343565b5b6135b6858286016134be565b9150509250929050565b6000602082840312156135d6576135d561333e565b5b600082013567ffffffffffffffff8111156135f4576135f3613343565b5b613600848285016134be565b91505092915050565b600081519050919050565b600082825260208201905092915050565b60005b83811015613643578082015181840152602081019050613628565b83811115613652576000848401525b50505050565b600061366382613609565b61366d8185613614565b935061367d818560208601613625565b613686816133b0565b840191505092915050565b6000819050919050565b6136a481613691565b82525050565b600081519050919050565b600082825260208201905092915050565b6000819050602082019050919050565b7f4e487b7100000000000000000000000000000000000000000000000000000000600052602160045260246000fd5b60078110613716576137156136d6565b5b50565b600081905061372782613705565b919050565b600061373782613719565b9050919050565b6137478161372c565b82525050565b6000604083016000830151848203600086015261376a8282613658565b915050602083015161377f602086018261373e565b508091505092915050565b600060408301600083015184820360008601526137a7828261374d565b915050602083015184820360208601526137c18282613658565b9150508091505092915050565b60006137da838361378a565b905092915050565b6000602082019050919050565b60006137fa826136aa565b61380481856136b5565b935083602082028501613816856136c6565b8060005b85811015613852578484038952815161383385826137ce565b945061383e836137e2565b925060208a0199505060018101905061381a565b50829750879550505050505092915050565b600060a08301600083015184820360008601526138818282613658565b9150506020830151613896602086018261369b565b50604083015184820360408601526138ae8282613658565b915050606083015184820360608601526138c88282613658565b915050608083015184820360808601526138e282826137ef565b9150508091505092915050565b600060208201905081810360008301526139098184613864565b905092915050565b61391a81613691565b811461392557600080fd5b50565b60008135905061393781613911565b92915050565b600080600080600060a086880312156139595761395861333e565b5b600086013567ffffffffffffffff81111561397757613976613343565b5b613983888289016134be565b955050602061399488828901613928565b945050604086013567ffffffffffffffff8111156139b5576139b4613343565b5b6139c1888289016134be565b935050606086013567ffffffffffffffff8111156139e2576139e1613343565b5b6139ee888289016134be565b925050608086013567ffffffffffffffff811115613a0f57613a0e613343565b5b613a1b888289016134be565b9150509295509295909350565b600060208284031215613a3e57613a3d61333e565b5b6000613a4c84828501613391565b91505092915050565b60006040830160008301518482036000860152613a728282613658565b9150506020830151613a87602086018261373e565b508091505092915050565b60006020820190508181036000830152613aac8184613a55565b905092915050565b600082825260208201905092915050565b7f4e6f7420746865206f776e657200000000000000000000000000000000000000600082015250565b6000613afb600d83613ab4565b9150613b0682613ac5565b602082019050919050565b60006020820190508181036000830152613b2a81613aee565b9050919050565b7f4e487b7100000000000000000000000000000000000000000000000000000000600052602260045260246000fd5b60006002820490506001821680613b7857607f821691505b60208210811415613b8c57613b8b613b31565b5b50919050565b7f436574746520434153452053414e5445206578697374652064656a6120210000600082015250565b6000613bc8601e83613ab4565b9150613bd382613b92565b602082019050919050565b60006020820190508181036000830152613bf781613bbb565b9050919050565b600081905092915050565b6000613c1482613609565b613c1e8185613bfe565b9350613c2e818560208601613625565b80840191505092915050565b6000613c468284613c09565b915081905092915050565b7f4365206d65646963616d656e74206e652066696775726520737572206c61206260008201527f6c6f636b636861696e0000000000000000000000000000000000000000000000602082015250565b6000613cad602983613ab4565b9150613cb882613c51565b604082019050919050565b60006020820190508181036000830152613cdc81613ca0565b9050919050565b7f4e6f742061204469747269637400000000000000000000000000000000000000600082015250565b6000613d19600d83613ab4565b9150613d2482613ce3565b602082019050919050565b60006020820190508181036000830152613d4881613d0c565b9050919050565b7f4e487b7100000000000000000000000000000000000000000000000000000000600052601160045260246000fd5b6000613d8982613691565b9150613d9483613691565b925082821015613da757613da6613d4f565b5b828203905092915050565b7f4e487b7100000000000000000000000000000000000000000000000000000000600052603260045260246000fd5b7f4365206d65646963616d656e74206e652070726f7669656e742070617320646560008201527f206c612050524100000000000000000000000000000000000000000000000000602082015250565b6000613e3d602783613ab4565b9150613e4882613de1565b604082019050919050565b60006020820190508181036000830152613e6c81613e30565b9050919050565b7f4e6f74206120504f5354452064652053616e7465000000000000000000000000600082015250565b6000613ea9601483613ab4565b9150613eb482613e73565b602082019050919050565b60006020820190508181036000830152613ed881613e9c565b9050919050565b7f4365206d65646963616d656e74206e652070726f7669656e742070617320647560008201527f2044495354524943540000000000000000000000000000000000000000000000602082015250565b6000613f3b602983613ab4565b9150613f4682613edf565b604082019050919050565b60006020820190508181036000830152613f6a81613f2e565b9050919050565b7f43657420486f706974616c206578697374652064656a61202100000000000000600082015250565b6000613fa7601983613ab4565b9150613fb282613f71565b602082019050919050565b60006020820190508181036000830152613fd681613f9a565b9050919050565b7f436520504e41206578697374652064656a612021000000000000000000000000600082015250565b6000614013601483613ab4565b915061401e82613fdd565b602082019050919050565b6000602082019050818103600083015261404281614006565b9050919050565b7f4365206d65646963616d656e74206578697374652064656a6120210000000000600082015250565b600061407f601b83613ab4565b915061408a82614049565b602082019050919050565b600060208201905081810360008301526140ae81614072565b9050919050565b7f4e6f74206120486f706974616c00000000000000000000000000000000000000600082015250565b60006140eb600d83613ab4565b91506140f6826140b5565b602082019050919050565b6000602082019050818103600083015261411a816140de565b9050919050565b7f436520505241206578697374652064656a612021000000000000000000000000600082015250565b6000614157601483613ab4565b915061416282614121565b602082019050919050565b600060208201905081810360008301526141868161414a565b9050919050565b7f4365742043454e5452452053414e5445206578697374652064656a6120210000600082015250565b60006141c3601e83613ab4565b91506141ce8261418d565b602082019050919050565b600060208201905081810360008301526141f2816141b6565b9050919050565b7f4e6f742061205052410000000000000000000000000000000000000000000000600082015250565b600061422f600983613ab4565b915061423a826141f9565b602082019050919050565b6000602082019050818103600083015261425e81614222565b9050919050565b7f4365206d65646963616d656e74206e652070726f7669656e742070617320646560008201527f206c6120504e4100000000000000000000000000000000000000000000000000602082015250565b60006142c1602783613ab4565b91506142cc82614265565b604082019050919050565b600060208201905081810360008301526142f0816142b4565b9050919050565b7f4365204449535452494354206578697374652064656a61202100000000000000600082015250565b600061432d601983613ab4565b9150614338826142f7565b602082019050919050565b6000602082019050818103600083015261435c81614320565b9050919050565b7f4e6f7420612043454e5452452064652053616e74650000000000000000000000600082015250565b6000614399601583613ab4565b91506143a482614363565b602082019050919050565b600060208201905081810360008301526143c88161438c565b9050919050565b7f4e6f74206120434153452064652053616e746500000000000000000000000000600082015250565b6000614405601383613ab4565b9150614410826143cf565b602082019050919050565b60006020820190508181036000830152614434816143f8565b9050919050565b7f4365206d65646963616d656e74206e652070726f7669656e742070617320647560008201527f20504f5354452064652053414e54450000000000000000000000000000000000602082015250565b6000614497602f83613ab4565b91506144a28261443b565b604082019050919050565b600060208201905081810360008301526144c68161448a565b905091905056fea26469706673582212201b3b93336fe15584e38f34b524f94a0bacd0ff842e8cc1b037a9ddd4d78f9e4f64736f6c63430008090033",
  "immutableReferences": {},
  "source": "// SPDX-License-Identifier: MIT\npragma solidity ^0.8.9;\n\ncontract MedocContract {\n\n  struct History {\n    Structure _structure ;\n    string _date ;\n  }\n  \n  // struct Medicament {\n  //   string _libelle;\n  //   uint _lotId;\n  //   string _datePeremption;\n  //   string _ipfsHash;\n  //   string _pna;\n  //   string _pra;\n  //   string _hopital;\n  //   string _district;\n  //   string _postesante;\n  //   string _centresante;\n  // }\n  struct Medicament {\n    string _libelle;\n    uint _lotId;\n    string _datePeremption;\n    string _ipfsHash;\n    History [] _history ;\n  }\n\n  mapping (string => Medicament) ListeMedicament ;\n\n  enum typeStructure { pna, pra, hopital, district, postesante, centresante, casesante }\n\n  struct Structure {\n    string _structureName;\n    MedocContract.typeStructure _structureType;\n  }\n  mapping (address => Structure) ListeStructure ;\n  address owner;\n\n  constructor()  {\n    owner = msg.sender;\n  }\n\n  modifier onlyOwner() {\n    require(msg.sender == owner, \"Not the owner\");\n    _;\n  }\n\n\n  function addPna(address _pnaAddress, string memory _pnaName) external onlyOwner {\n    require(bytes(ListeStructure[_pnaAddress]._structureName).length == 0, \"Ce PNA existe deja !\");\n    \n    Structure memory s = Structure(_pnaName, typeStructure.pna) ;\n    ListeStructure[_pnaAddress] = s ;\n  }\n  \n  function addPra(address _praAddress, string memory _praName) external onlyOwner {\n    require(bytes(ListeStructure[_praAddress]._structureName).length == 0, \"Ce PRA existe deja !\");\n    \n    Structure memory s = Structure(_praName, typeStructure.pra) ;\n    ListeStructure[_praAddress] = s ;\n  }\n\n  function addHopital(address _structureAddres, string memory _structureName) external onlyOwner {\n    require(bytes(ListeStructure[_structureAddres]._structureName).length == 0, \"Cet Hopital existe deja !\");\n    \n    Structure memory s = Structure(_structureName, typeStructure.hopital) ;\n    ListeStructure[_structureAddres] = s ;\n  }\n\n  function addDistrict(address _structureAddres, string memory _structureName) external onlyOwner {\n    require(bytes(ListeStructure[_structureAddres]._structureName).length == 0, \"Ce DISTRICT existe deja !\");\n    \n    Structure memory s = Structure(_structureName, typeStructure.district) ;\n    ListeStructure[_structureAddres] = s ;\n  }\n\n  function addPosteSante(address _structureAddres, string memory _structureName) external onlyOwner {\n    require(bytes(ListeStructure[_structureAddres]._structureName).length == 0, \"Cet Hopital existe deja !\");\n    \n    Structure memory s = Structure(_structureName, typeStructure.postesante) ;\n    ListeStructure[_structureAddres] = s ;\n  }\n\n  function addCentreSante(address _structureAddres, string memory _structureName) external onlyOwner {\n    require(bytes(ListeStructure[_structureAddres]._structureName).length == 0, \"Cet CENTRE SANTE existe deja !\");\n    \n    Structure memory s = Structure(_structureName, typeStructure.centresante) ;\n    ListeStructure[_structureAddres] = s ;\n  }\n\n  function addCaseSante(address _structureAddres, string memory _structureName) external onlyOwner {\n    require(bytes(ListeStructure[_structureAddres]._structureName).length == 0, \"Cette CASE SANTE existe deja !\");\n    \n    Structure memory s = Structure(_structureName, typeStructure.casesante) ;\n    ListeStructure[_structureAddres] = s ;\n  }\n\n  function addMedicament(string memory _libelle, uint _lotId, string memory _datePeremption, string memory _ipfsHash, string memory _date) external onlyOwner {\n    require(bytes(ListeMedicament[_ipfsHash]._ipfsHash).length == 0, \"Ce medicament existe deja !\");\n    \n    ListeMedicament[_ipfsHash]._libelle = _libelle ;\n    ListeMedicament[_ipfsHash]._lotId = _lotId ;\n    ListeMedicament[_ipfsHash]._datePeremption = _datePeremption ;\n    ListeMedicament[_ipfsHash]._ipfsHash = _ipfsHash ;\n\n    Structure memory s = Structure(ListeStructure[msg.sender]._structureName, ListeStructure[msg.sender]._structureType) ;\n    History memory h = History(s, _date) ;\n    ListeMedicament[_ipfsHash]._history.push(h) ;\n  }  \n\n  function addMedicamentOnPraStock(string memory _ipfsHash, string memory _date) external{\n    require(bytes(ListeMedicament[_ipfsHash]._ipfsHash).length > 0, \"Ce medicament ne figure sur la blockchain\");\n    require(ListeStructure[msg.sender]._structureType == typeStructure.pra, \"Not a PRA\");\n    // Verifier si le medicament vient de la PNA\n    require(ListeMedicament[_ipfsHash]._history[ListeMedicament[_ipfsHash]._history.length - 1]._structure._structureType == typeStructure.pna, \"Ce medicament ne provient pas de la PNA\");\n   \n    //  Ajouter La PRA dans l'historique du mdicament\n    Structure memory s = Structure(ListeStructure[msg.sender]._structureName, ListeStructure[msg.sender]._structureType);\n    History memory h = History(s, _date);\n    ListeMedicament[_ipfsHash]._history.push(h);\n  }\n  \n  function addMedicamentOnHopitalStock(string memory _ipfsHash, string memory _date) external{\n    require(bytes(ListeMedicament[_ipfsHash]._ipfsHash).length > 0, \"Ce medicament ne figure sur la blockchain\");\n    require(ListeStructure[msg.sender]._structureType == typeStructure.hopital, \"Not a Hopital\");\n    // Verifier si le medicament vient de la PNA\n    require(ListeMedicament[_ipfsHash]._history[ListeMedicament[_ipfsHash]._history.length - 1]._structure._structureType == typeStructure.pra, \"Ce medicament ne provient pas de la PRA\");\n   \n    //  Ajouter La PRA dans l'historique du mdicament\n    Structure memory s = Structure(ListeStructure[msg.sender]._structureName, ListeStructure[msg.sender]._structureType);\n    History memory h = History(s, _date);\n    ListeMedicament[_ipfsHash]._history.push(h);\n  }\n\n  function addMedicamentOnDistrictStock(string memory _ipfsHash, string memory _date) external{\n    require(bytes(ListeMedicament[_ipfsHash]._ipfsHash).length > 0, \"Ce medicament ne figure sur la blockchain\");\n    require(ListeStructure[msg.sender]._structureType == typeStructure.district, \"Not a Ditrict\");\n    // Verifier si le medicament vient de la PNA\n    require(ListeMedicament[_ipfsHash]._history[ListeMedicament[_ipfsHash]._history.length - 1]._structure._structureType == typeStructure.pra, \"Ce medicament ne provient pas de la PRA\");\n   \n    //  Ajouter La PRA dans l'historique du mdicament\n    Structure memory s = Structure(ListeStructure[msg.sender]._structureName, ListeStructure[msg.sender]._structureType);\n    History memory h = History(s, _date);\n    ListeMedicament[_ipfsHash]._history.push(h);\n  }\n\n  function addMedicamentOnPosteSanteStock(string memory _ipfsHash, string memory _date) external{\n    require(bytes(ListeMedicament[_ipfsHash]._ipfsHash).length > 0, \"Ce medicament ne figure sur la blockchain\");\n    require(ListeStructure[msg.sender]._structureType == typeStructure.postesante, \"Not a POSTE de Sante\");\n    // Verifier si le medicament vient de la PNA\n    require(ListeMedicament[_ipfsHash]._history[ListeMedicament[_ipfsHash]._history.length - 1]._structure._structureType == typeStructure.district, \"Ce medicament ne provient pas du DISTRICT\");\n   \n    //  Ajouter La PRA dans l'historique du mdicament\n    Structure memory s = Structure(ListeStructure[msg.sender]._structureName, ListeStructure[msg.sender]._structureType);\n    History memory h = History(s, _date);\n    ListeMedicament[_ipfsHash]._history.push(h);\n  }\n\n  function addMedicamentOnCentreSanteStock(string memory _ipfsHash, string memory _date) external{\n    require(bytes(ListeMedicament[_ipfsHash]._ipfsHash).length > 0, \"Ce medicament ne figure sur la blockchain\");\n    require(ListeStructure[msg.sender]._structureType == typeStructure.centresante, \"Not a CENTRE de Sante\");\n    // Verifier si le medicament vient de la PNA\n    require(ListeMedicament[_ipfsHash]._history[ListeMedicament[_ipfsHash]._history.length - 1]._structure._structureType == typeStructure.district, \"Ce medicament ne provient pas du DISTRICT\");\n   \n    //  Ajouter La PRA dans l'historique du mdicament\n    Structure memory s = Structure(ListeStructure[msg.sender]._structureName, ListeStructure[msg.sender]._structureType);\n    History memory h = History(s, _date);\n    ListeMedicament[_ipfsHash]._history.push(h);\n  }\n\n  function addMedicamentOnCaseSanteStock(string memory _ipfsHash, string memory _date) external{\n    require(bytes(ListeMedicament[_ipfsHash]._ipfsHash).length > 0, \"Ce medicament ne figure sur la blockchain\");\n    require(ListeStructure[msg.sender]._structureType == typeStructure.casesante, \"Not a CASE de Sante\");\n    // Verifier si le medicament vient de la PNA\n    require(ListeMedicament[_ipfsHash]._history[ListeMedicament[_ipfsHash]._history.length - 1]._structure._structureType == typeStructure.postesante, \"Ce medicament ne provient pas du POSTE de SANTE\");\n   \n    //  Ajouter La PRA dans l'historique du mdicament\n    Structure memory s = Structure(ListeStructure[msg.sender]._structureName, ListeStructure[msg.sender]._structureType);\n    History memory h = History(s, _date);\n    ListeMedicament[_ipfsHash]._history.push(h);\n  }\n  \n\n\n  // function addMedicament(string memory _libelle, uint _lotId, string memory _datePeremption, string memory _ipfsHash) external onlyOwner {\n  //   require(bytes(ListeMedicament[_ipfsHash]._ipfsHash).length == 0, \"Ce medicament existe deja !\");\n    \n  //   ListeMedicament[_ipfsHash]._libelle = _libelle ;\n  //   ListeMedicament[_ipfsHash]._lotId = _lotId ;\n  //   ListeMedicament[_ipfsHash]._datePeremption = _datePeremption ;\n  //   ListeMedicament[_ipfsHash]._ipfsHash = _ipfsHash ;\n  //   ListeMedicament[_ipfsHash]._pna = ListeStructure[owner]._structureName ;\n  // }\n\n  // function addMedicamentOnPraStock(string memory _ipfsHash) external {\n  //   require(bytes(ListeMedicament[_ipfsHash]._ipfsHash).length > 0, \"Ce medicament ne figure sur la blockchain\");\n  //   require(ListeStructure[msg.sender]._structureType == typeStructure.pra, \"Not a PRA\");\n  //   require(bytes(ListeMedicament[_ipfsHash]._pna).length > 0, \"Ce medicament ne provient pas de la PNA\");\n  //   require(bytes(ListeMedicament[_ipfsHash]._pra).length == 0, \"Ce medicament figure deja une PRA \");\n    \n  //   // ajouter le medicament dans le stock de la pra\n  //   ListeMedicament[_ipfsHash]._pra = ListeStructure[msg.sender]._structureName ;\n  // }\n\n  // function addMedicamentOnHopitalStock(string memory _ipfsHash) external {\n  //   require(bytes(ListeMedicament[_ipfsHash]._ipfsHash).length > 0, \"Ce medicament ne figure sur la blockchain\");\n  //   require(ListeStructure[msg.sender]._structureType == typeStructure.hopital, \"Not a HOPITAL\");\n  //   require(bytes(ListeMedicament[_ipfsHash]._pra).length > 0, \"Ce medicament ne provient pas de la PRA\");\n  //   require(bytes(ListeMedicament[_ipfsHash]._hopital).length == 0, \"Ce medicament figure deja un HOPITAL \");\n    \n  //   // ajouter le medicament dans le stock de la pra\n  //   ListeMedicament[_ipfsHash]._hopital = ListeStructure[msg.sender]._structureName ;\n  // }\n\n  // function addMedicamentOnDistrictStock(string memory _ipfsHash) external {\n  //   require(bytes(ListeMedicament[_ipfsHash]._ipfsHash).length > 0, \"Ce medicament ne figure sur la blockchain\");\n  //   require(ListeStructure[msg.sender]._structureType == typeStructure.district, \"Not a District\");\n  //   require(bytes(ListeMedicament[_ipfsHash]._pra).length > 0, \"Ce medicament ne provient pas de la PRA\");\n  //   require(bytes(ListeMedicament[_ipfsHash]._district).length == 0, \"Ce medicament figure deja un District \");\n    \n  //   // ajouter le medicament dans le stock de la pra\n  //   ListeMedicament[_ipfsHash]._district = ListeStructure[msg.sender]._structureName ;\n  // }\n\n  // function addMedicamentOnPosteSanteStock(string memory _ipfsHash) external {\n  //   require(bytes(ListeMedicament[_ipfsHash]._ipfsHash).length > 0, \"Ce medicament ne figure sur la blockchain\");\n  //   require(ListeStructure[msg.sender]._structureType == typeStructure.postesante, \"Not a POSTE SANTE\");\n  //   require(bytes(ListeMedicament[_ipfsHash]._district).length > 0, \"Ce medicament ne provient pas du District\");\n  //   require(bytes(ListeMedicament[_ipfsHash]._postesante).length == 0, \"Ce medicament figure deja un POSTE SANTE \");\n    \n  //   // ajouter le medicament dans le stock de la pra\n  //   ListeMedicament[_ipfsHash]._postesante = ListeStructure[msg.sender]._structureName ;\n  // }\n\n  // function addMedicamentOnCentreSanteStock(string memory _ipfsHash) external {\n  //   require(bytes(ListeMedicament[_ipfsHash]._ipfsHash).length > 0, \"Ce medicament ne figure sur la blockchain\");\n  //   require(ListeStructure[msg.sender]._structureType == typeStructure.centresante, \"Not a CENTRE SANTE\");\n  //   require(bytes(ListeMedicament[_ipfsHash]._district).length > 0, \"Ce medicament ne provient pas du District\");\n  //   require(bytes(ListeMedicament[_ipfsHash]._centresante).length == 0, \"Ce medicament figure deja un CENTRE SANTE \");\n    \n  //   // ajouter le medicament dans le stock de la pra\n  //   ListeMedicament[_ipfsHash]._centresante = ListeStructure[msg.sender]._structureName ;\n  // }\n  \n  \n  \n\n\n  function getHistoryMedicament(string memory _ipfsHash) public view returns (Medicament memory) {\n    return ListeMedicament[_ipfsHash] ;\n  }\n\n  function getStructure(address _structureAddress) public view returns (Structure memory) {\n    return ListeStructure[_structureAddress] ;\n  }\n  \n}\n",
  "sourcePath": "C:\\Users\\elninho\\Desktop\\truffletest\\blockchain-medoc\\contracts\\MedocContract.sol",
  "compiler": {
    "name": "solc",
    "version": "0.8.9+commit.e5eed63a.Emscripten.clang"
  },
  "schemaVersion": "3.4.15",
  "updatedAt": "2023-09-20T14:46:04.446Z",
  "networkType": "ethereum",
  "devdoc": {
    "kind": "dev",
    "methods": {},
    "version": 1
  },
  "userdoc": {
    "kind": "user",
    "methods": {},
    "version": 1
  }
}